{
  "contractName": "Freezable",
  "abi": [
    {
      "inputs": [],
      "payable": false,
      "stateMutability": "nonpayable",
      "type": "constructor"
    },
    {
      "constant": false,
      "inputs": [
        {
          "name": "_flag",
          "type": "bool"
        }
      ],
      "name": "freeza",
      "outputs": [
        {
          "name": "",
          "type": "bool"
        }
      ],
      "payable": false,
      "stateMutability": "nonpayable",
      "type": "function"
    }
  ],
  "bytecode": "0x608060405234801561001057600080fd5b50336000806101000a81548173ffffffffffffffffffffffffffffffffffffffff021916908373ffffffffffffffffffffffffffffffffffffffff1602179055506001600060146101000a81548160ff0219169083151502179055506101478061007b6000396000f300608060405260043610610041576000357c0100000000000000000000000000000000000000000000000000000000900463ffffffff1680635e9ea73114610046575b600080fd5b34801561005257600080fd5b5061007360048036038101908080351515906020019092919050505061008d565b604051808215151515815260200191505060405180910390f35b60008060009054906101000a900473ffffffffffffffffffffffffffffffffffffffff1673ffffffffffffffffffffffffffffffffffffffff163373ffffffffffffffffffffffffffffffffffffffff161415156100ea57600080fd5b81600060146101000a81548160ff021916908315150217905550600060149054906101000a900460ff1690509190505600a165627a7a723058202a500deb85f2b6d2a7e675229492d922384771737e4cf7ef09b08477763416940029",
  "source": "pragma solidity ^0.4.18;\n\n/// @title Freezable - Freezable contract\n/// @author - Yusaku Senga - <senga@dri.network>\n/// license let's see in LICENSE\n\ncontract Freezable {\n\n    /**\n    * Storage\n    */\n\n    address owner;\n    bool executable;\n\n    /**\n    * Modifier\n    */\n\n    modifier onlyOwner() {\n        require(msg.sender == owner);\n        _;\n    }\n    modifier can() {\n        require(executable);\n        _;\n    }\n\n    /**\n    * @notice Constructor method\n    * @dev Constructor is called when contract deployed.\n    */\n\n    function Freezable() public {\n        owner = msg.sender;\n        executable = true;\n    }\n\n    /**\n    * functions\n    */\n\n    /// @notice freeza execute to initializing registry.\n    /// @dev freeza is called by Owner.\n    /// @param  _flag    to be stop all executable function when occurring emergency.\n    function freeza(bool _flag) public onlyOwner() returns (bool) {\n        executable = _flag;\n        return executable;\n    }\n}\n\n",
  "sourcePath": "/Users/sengayusaku/repo/TrustKYC-contract/contract/contracts/Freezable.sol",
  "compiler": {
    "name": "solc",
    "version": "0.4.24+commit.e67f0147.Emscripten.clang"
  },
  "schemaVersion": "2.0.1",
  "updatedAt": "2018-09-02T06:58:14.065Z"
}