{
  "contractName": "KYCCertifier",
  "abi": [
    {
      "constant": true,
      "inputs": [],
      "name": "pendingCertifier",
      "outputs": [
        {
          "name": "",
          "type": "address"
        }
      ],
      "payable": false,
      "stateMutability": "view",
      "type": "function"
    },
    {
      "constant": true,
      "inputs": [],
      "name": "expireTime",
      "outputs": [
        {
          "name": "",
          "type": "uint256"
        }
      ],
      "payable": false,
      "stateMutability": "view",
      "type": "function"
    },
    {
      "constant": true,
      "inputs": [],
      "name": "isPrimary",
      "outputs": [
        {
          "name": "",
          "type": "bool"
        }
      ],
      "payable": false,
      "stateMutability": "view",
      "type": "function"
    },
    {
      "constant": true,
      "inputs": [],
      "name": "tokenDecimals",
      "outputs": [
        {
          "name": "",
          "type": "uint256"
        }
      ],
      "payable": false,
      "stateMutability": "view",
      "type": "function"
    },
    {
      "constant": false,
      "inputs": [
        {
          "name": "_flag",
          "type": "bool"
        }
      ],
      "name": "freeza",
      "outputs": [
        {
          "name": "",
          "type": "bool"
        }
      ],
      "payable": false,
      "stateMutability": "nonpayable",
      "type": "function"
    },
    {
      "constant": true,
      "inputs": [],
      "name": "totalVotablePowers",
      "outputs": [
        {
          "name": "",
          "type": "uint256"
        }
      ],
      "payable": false,
      "stateMutability": "view",
      "type": "function"
    },
    {
      "constant": true,
      "inputs": [],
      "name": "totalVoted",
      "outputs": [
        {
          "name": "",
          "type": "uint256"
        }
      ],
      "payable": false,
      "stateMutability": "view",
      "type": "function"
    },
    {
      "constant": true,
      "inputs": [],
      "name": "isVoteRound",
      "outputs": [
        {
          "name": "",
          "type": "bool"
        }
      ],
      "payable": false,
      "stateMutability": "view",
      "type": "function"
    },
    {
      "constant": true,
      "inputs": [],
      "name": "token",
      "outputs": [
        {
          "name": "",
          "type": "address"
        }
      ],
      "payable": false,
      "stateMutability": "view",
      "type": "function"
    },
    {
      "inputs": [],
      "payable": false,
      "stateMutability": "nonpayable",
      "type": "constructor"
    },
    {
      "anonymous": false,
      "inputs": [
        {
          "indexed": false,
          "name": "_certifier",
          "type": "address"
        }
      ],
      "name": "AddKYCCertifier",
      "type": "event"
    },
    {
      "anonymous": false,
      "inputs": [
        {
          "indexed": false,
          "name": "_primaryCertifier",
          "type": "address"
        }
      ],
      "name": "SetPrimaryCertifier",
      "type": "event"
    },
    {
      "constant": false,
      "inputs": [
        {
          "name": "_token",
          "type": "address"
        },
        {
          "name": "_voters",
          "type": "address[]"
        }
      ],
      "name": "init",
      "outputs": [
        {
          "name": "",
          "type": "bool"
        }
      ],
      "payable": false,
      "stateMutability": "nonpayable",
      "type": "function"
    },
    {
      "constant": false,
      "inputs": [
        {
          "name": "_certifier",
          "type": "address"
        },
        {
          "name": "_time",
          "type": "uint256"
        },
        {
          "name": "_isPrimary",
          "type": "bool"
        }
      ],
      "name": "claimCertifier",
      "outputs": [
        {
          "name": "",
          "type": "bool"
        }
      ],
      "payable": false,
      "stateMutability": "nonpayable",
      "type": "function"
    },
    {
      "constant": false,
      "inputs": [],
      "name": "revokeCertifier",
      "outputs": [
        {
          "name": "",
          "type": "bool"
        }
      ],
      "payable": false,
      "stateMutability": "nonpayable",
      "type": "function"
    },
    {
      "constant": false,
      "inputs": [],
      "name": "vote",
      "outputs": [
        {
          "name": "",
          "type": "bool"
        }
      ],
      "payable": false,
      "stateMutability": "nonpayable",
      "type": "function"
    },
    {
      "constant": true,
      "inputs": [],
      "name": "getPrimaryCertifier",
      "outputs": [
        {
          "name": "",
          "type": "address"
        }
      ],
      "payable": false,
      "stateMutability": "view",
      "type": "function"
    },
    {
      "constant": true,
      "inputs": [
        {
          "name": "_certifier",
          "type": "address"
        }
      ],
      "name": "isCertifier",
      "outputs": [
        {
          "name": "",
          "type": "bool"
        }
      ],
      "payable": false,
      "stateMutability": "view",
      "type": "function"
    },
    {
      "constant": true,
      "inputs": [],
      "name": "getCertifiers",
      "outputs": [
        {
          "name": "",
          "type": "address[]"
        }
      ],
      "payable": false,
      "stateMutability": "view",
      "type": "function"
    }
  ],
  "bytecode": "0x608060405234801561001057600080fd5b50336000806101000a81548173ffffffffffffffffffffffffffffffffffffffff021916908373ffffffffffffffffffffffffffffffffffffffff1602179055506001600060146101000a81548160ff0219169083151502179055506000600b60006101000a81548160ff0219169083600181111561008b57fe5b02179055506113d28061009f6000396000f3006080604052600436106100e6576000357c0100000000000000000000000000000000000000000000000000000000900463ffffffff1680630891bc8a146100eb57806310efe71c146101575780631c2353e1146101c85780632d97e0411461022357806330e179991461027a578063310a1ee3146102d15780633682152b146102fc5780633b97e8561461032b5780633c5a3cea146103565780635e9ea731146103f4578063632a9a521461043b578063701f44c81461046a578063b3a2273f14610495578063db36a41a146104c0578063f48178ae146104ef578063fc0c546a1461051e575b600080fd5b3480156100f757600080fd5b50610100610575565b6040518080602001828103825283818151815260200191508051906020019060200280838360005b83811015610143578082015181840152602081019050610128565b505050509050019250505060405180910390f35b34801561016357600080fd5b506101ae600480360381019080803573ffffffffffffffffffffffffffffffffffffffff16906020019092919080359060200190929190803515159060200190929190505050610603565b604051808215151515815260200191505060405180910390f35b3480156101d457600080fd5b50610209600480360381019080803573ffffffffffffffffffffffffffffffffffffffff16906020019092919050505061073d565b604051808215151515815260200191505060405180910390f35b34801561022f57600080fd5b50610238610793565b604051808273ffffffffffffffffffffffffffffffffffffffff1673ffffffffffffffffffffffffffffffffffffffff16815260200191505060405180910390f35b34801561028657600080fd5b5061028f6107bd565b604051808273ffffffffffffffffffffffffffffffffffffffff1673ffffffffffffffffffffffffffffffffffffffff16815260200191505060405180910390f35b3480156102dd57600080fd5b506102e66107e3565b6040518082815260200191505060405180910390f35b34801561030857600080fd5b506103116107e9565b604051808215151515815260200191505060405180910390f35b34801561033757600080fd5b506103406107fc565b6040518082815260200191505060405180910390f35b34801561036257600080fd5b506103da600480360381019080803573ffffffffffffffffffffffffffffffffffffffff16906020019092919080359060200190820180359060200190808060200260200160405190810160405280939291908181526020018383602002808284378201915050505050509192919290505050610802565b604051808215151515815260200191505060405180910390f35b34801561040057600080fd5b50610421600480360381019080803515159060200190929190505050610cf3565b604051808215151515815260200191505060405180910390f35b34801561044757600080fd5b50610450610d81565b604051808215151515815260200191505060405180910390f35b34801561047657600080fd5b5061047f610f6d565b6040518082815260200191505060405180910390f35b3480156104a157600080fd5b506104aa610f73565b6040518082815260200191505060405180910390f35b3480156104cc57600080fd5b506104d5610f79565b604051808215151515815260200191505060405180910390f35b3480156104fb57600080fd5b50610504610f8c565b604051808215151515815260200191505060405180910390f35b34801561052a57600080fd5b50610533610ff7565b604051808273ffffffffffffffffffffffffffffffffffffffff1673ffffffffffffffffffffffffffffffffffffffff16815260200191505060405180910390f35b606060088054806020026020016040519081016040528092919081815260200182805480156105f957602002820191906000526020600020905b8160009054906101000a900473ffffffffffffffffffffffffffffffffffffffff1673ffffffffffffffffffffffffffffffffffffffff16815260200190600101908083116105af575b5050505050905090565b60008060149054906101000a900460ff16151561061f57600080fd5b6106283361073d565b151561063357600080fd5b61063c8461101d565b15151561064857600080fd5b600160149054906101000a900460ff1615801561066757506000600554145b151561067257600080fd5b8115610691576106818461073d565b151561068c57600080fd5b6106a7565b61069a8461073d565b1515156106a657600080fd5b5b4283101515156106b657600080fd5b83600460006101000a81548173ffffffffffffffffffffffffffffffffffffffff021916908373ffffffffffffffffffffffffffffffffffffffff16021790555081600660006101000a81548160ff0219169083151502179055508260028190555060018060146101000a81548160ff021916908315150217905550600190509392505050565b6000600a60008373ffffffffffffffffffffffffffffffffffffffff1673ffffffffffffffffffffffffffffffffffffffff16815260200190815260200160002060009054906101000a900460ff169050919050565b6000600960009054906101000a900473ffffffffffffffffffffffffffffffffffffffff16905090565b600460009054906101000a900473ffffffffffffffffffffffffffffffffffffffff1681565b60025481565b600660009054906101000a900460ff1681565b60035481565b600080600060149054906101000a900460ff16151561082057600080fd5b6000809054906101000a900473ffffffffffffffffffffffffffffffffffffffff1673ffffffffffffffffffffffffffffffffffffffff163373ffffffffffffffffffffffffffffffffffffffff1614151561087b57600080fd5b6000600181111561088857fe5b600b60009054906101000a900460ff1660018111156108a357fe5b1415156108af57600080fd5b83600160006101000a81548173ffffffffffffffffffffffffffffffffffffffff021916908373ffffffffffffffffffffffffffffffffffffffff16021790555060006005819055506000600160146101000a81548160ff0219169083151502179055506000600781905550600160009054906101000a900473ffffffffffffffffffffffffffffffffffffffff1673ffffffffffffffffffffffffffffffffffffffff1663313ce5676040518163ffffffff167c0100000000000000000000000000000000000000000000000000000000028152600401602060405180830381600087803b1580156109a157600080fd5b505af11580156109b5573d6000803e3d6000fd5b505050506040513d60208110156109cb57600080fd5b810190808051906020019092919050505060ff1660038190555060038351101515156109f657600080fd5b600090505b8251811015610c6b57610a248382815181101515610a1557fe5b9060200190602002015161101d565b151515610a3057600080fd5b600354600a0a61c35002600160009054906101000a900473ffffffffffffffffffffffffffffffffffffffff1673ffffffffffffffffffffffffffffffffffffffff166370a082318584815181101515610a8657fe5b906020019060200201516040518263ffffffff167c0100000000000000000000000000000000000000000000000000000000028152600401808273ffffffffffffffffffffffffffffffffffffffff1673ffffffffffffffffffffffffffffffffffffffff168152602001915050602060405180830381600087803b158015610b0e57600080fd5b505af1158015610b22573d6000803e3d6000fd5b505050506040513d6020811015610b3857600080fd5b810190808051906020019092919050505010151515610b5657600080fd5b6001600a60008584815181101515610b6a57fe5b9060200190602002015173ffffffffffffffffffffffffffffffffffffffff1673ffffffffffffffffffffffffffffffffffffffff16815260200190815260200160002060006101000a81548160ff02191690831515021790555060088382815181101515610bd557fe5b9060200190602002015190806001815401808255809150509060018203906000526020600020016000909192909190916101000a81548173ffffffffffffffffffffffffffffffffffffffff021916908373ffffffffffffffffffffffffffffffffffffffff16021790555050610c58606460075461105990919063ffffffff16565b60078190555080806001019150506109fb565b826000815181101515610c7a57fe5b90602001906020020151600960006101000a81548173ffffffffffffffffffffffffffffffffffffffff021916908373ffffffffffffffffffffffffffffffffffffffff1602179055506001600b60006101000a81548160ff02191690836001811115610ce357fe5b0217905550600191505092915050565b60008060009054906101000a900473ffffffffffffffffffffffffffffffffffffffff1673ffffffffffffffffffffffffffffffffffffffff163373ffffffffffffffffffffffffffffffffffffffff16141515610d5057600080fd5b81600060146101000a81548160ff021916908315150217905550600060149054906101000a900460ff169050919050565b60008060008060149054906101000a900460ff161515610da057600080fd5b610da93361073d565b1515610db457600080fd5b600160149054906101000a900460ff161515610dcf57600080fd5b600354600a0a61c350029150600160009054906101000a900473ffffffffffffffffffffffffffffffffffffffff1673ffffffffffffffffffffffffffffffffffffffff166323b872dd3330856040518463ffffffff167c0100000000000000000000000000000000000000000000000000000000028152600401808473ffffffffffffffffffffffffffffffffffffffff1673ffffffffffffffffffffffffffffffffffffffff1681526020018373ffffffffffffffffffffffffffffffffffffffff1673ffffffffffffffffffffffffffffffffffffffff1681526020018281526020019350505050602060405180830381600087803b158015610ed457600080fd5b505af1158015610ee8573d6000803e3d6000fd5b505050506040513d6020811015610efe57600080fd5b81019080805190602001909291905050501515610f1a57600080fd5b610f30606460055461105990919063ffffffff16565b600581905550600660009054906101000a900460ff1615610f5a57610f53611077565b9050610f65565b610f626111b1565b90505b809250505090565b60075481565b60055481565b600160149054906101000a900460ff1681565b60008060149054906101000a900460ff161515610fa857600080fd5b610fb13361073d565b1515610fbc57600080fd5b6002544210151515610fcd57600080fd5b60006005819055506000600160146101000a81548160ff0219169083151502179055506001905090565b600160009054906101000a900473ffffffffffffffffffffffffffffffffffffffff1681565b60008060008373ffffffffffffffffffffffffffffffffffffffff1614156110485760009150611053565b823b90506000811191505b50919050565b600080828401905083811015151561106d57fe5b8091505092915050565b6000600360026007540281151561108a57fe5b046005541015156111a957600460009054906101000a900473ffffffffffffffffffffffffffffffffffffffff16600960006101000a81548173ffffffffffffffffffffffffffffffffffffffff021916908373ffffffffffffffffffffffffffffffffffffffff1602179055506000600160146101000a81548160ff02191690831515021790555060006005819055507fc042dc6de5006707318f766c3d58aaad962dfd99f2171c53b4a275cbb60b9c61600960009054906101000a900473ffffffffffffffffffffffffffffffffffffffff16604051808273ffffffffffffffffffffffffffffffffffffffff1673ffffffffffffffffffffffffffffffffffffffff16815260200191505060405180910390a1600190506111ae565b600090505b90565b600060036002600754028115156111c457fe5b0460055410151561139e576001600a6000600460009054906101000a900473ffffffffffffffffffffffffffffffffffffffff1673ffffffffffffffffffffffffffffffffffffffff1673ffffffffffffffffffffffffffffffffffffffff16815260200190815260200160002060006101000a81548160ff0219169083151502179055506008600460009054906101000a900473ffffffffffffffffffffffffffffffffffffffff1690806001815401808255809150509060018203906000526020600020016000909192909190916101000a81548173ffffffffffffffffffffffffffffffffffffffff021916908373ffffffffffffffffffffffffffffffffffffffff160217905550506112e7606460075461105990919063ffffffff16565b6007819055506000600160146101000a81548160ff02191690831515021790555060006005819055507f4f1e52428207dd57eddf1f35634b40f47797685dcb1382cedacf39c42d19d059600460009054906101000a900473ffffffffffffffffffffffffffffffffffffffff16604051808273ffffffffffffffffffffffffffffffffffffffff1673ffffffffffffffffffffffffffffffffffffffff16815260200191505060405180910390a1600190506113a3565b600090505b905600a165627a7a723058204d5da56806063b9151cdf59b92115a9f595c17acd508b1164e2ec362a1bf9f2a0029",
  "source": "pragma solidity ^0.4.18;\nimport { KYCToken } from \"./KYCToken.sol\";\nimport { SafeMath } from \"./SafeMath.sol\";\nimport { Freezable } from \"./Freezable.sol\";\n\n/// @title KYCCertifier - KYCCertifier contract\n/// @author - Yusaku Senga - <senga@dri.network>\n/// license let's see in LICENSE\n\ncontract KYCCertifier is Freezable {\n    ///using safemath\n    using SafeMath for uint256;\n  \n    /**\n     * Storage\n     */\n\n    KYCToken public token;\n    bool public isVoteRound;\n    uint256 public expireTime;\n    uint256 public tokenDecimals;\n    address public pendingCertifier;\n    uint256 public totalVoted;\n    bool public isPrimary;\n    uint256 public totalVotablePowers;\n    address[] certifierLists;\n    address primaryCertifier;\n    mapping(address => bool) certifiers;\n\n    enum Status {\n      Deployed,\n      Initialized\n    }\n    Status status;\n  \n    /**\n     * Event\n     */\n\n    event AddKYCCertifier(address _certifier);\n    event SetPrimaryCertifier(address _primaryCertifier);\n\n    /**\n     * Modifier\n     */\n\n    modifier onlyCertifier() {\n        require(isCertifier(msg.sender));\n        _;\n    }\n\n    /**\n     * @notice Constructor method\n     * @dev Constructor is called when contract deployed.\n     */\n\n    constructor() public {\n        status = Status.Deployed;\n    }\n\n    /**\n     * Functions\n     */\n\n    /// @notice init executes initializing.\n    /// @dev init is called only Owner.\n    /// @param  _token    to set tokenAddress for KYC token.\n    /// @param  _voters   The address to be voter for this certifier contract.\n    function init(address _token, address[] _voters) public can() onlyOwner() returns (bool) {\n        require(status == Status.Deployed);\n        token = KYCToken(_token);\n        totalVoted = 0;\n        isVoteRound = false;\n        totalVotablePowers = 0;\n        tokenDecimals = token.decimals();\n\n        require(_voters.length >= 3);\n\n        for (uint i = 0; i < _voters.length; i++) {\n            require(!isContract(_voters[i]));\n            require(token.balanceOf(_voters[i]) >= 50000 * 10 ** tokenDecimals);\n            certifiers[_voters[i]] = true;\n            certifierLists.push(_voters[i]);\n            totalVotablePowers = totalVotablePowers.add(100);\n        }\n        primaryCertifier = _voters[0];\n        status = Status.Initialized;\n        return true;\n    }\n\n    /// @notice claimCertifier is called by other certifiers to claim a certification round.\n    /// @dev claimCertifier is called only set isVoteRound is false.\n    /// @param  _certifier    To add new certifier or to set primaryCertifier.\n    /// @param  _time         The time to be executable when time is elapsed.\n    /// @param  _isPrimary    The flag of primaryCertifier contract.\n    function claimCertifier(address _certifier, uint256 _time, bool _isPrimary) public can() onlyCertifier() returns(bool) {\n        require(!isContract(_certifier));\n\n        require(!isVoteRound && totalVoted == 0);\n\n        if (_isPrimary)\n            require(isCertifier(_certifier));\n        else\n            require(!isCertifier(_certifier));\n\n        require(_time >= block.timestamp);\n\n        pendingCertifier = _certifier;\n\n        isPrimary = _isPrimary;\n\n        expireTime = _time;\n\n        isVoteRound = true;\n\n        return true;\n    }\n\n    /// @notice revokeCertifier executes revoke a certification round.\n    /// @dev revokeCertifier is called by certifier.\n    function revokeCertifier() public can() onlyCertifier() returns(bool) {\n        require(block.timestamp >= expireTime);\n        totalVoted = 0;\n        isVoteRound = false;\n        return true;\n    }\n\n    /// @notice vote executes voting to round.\n    /// @dev vote is called by certifier.\n    function vote() public can() onlyCertifier() returns(bool) {\n        require(isVoteRound);\n\n        uint256 votePower = 50000 * 10 ** tokenDecimals;\n    \n        require(token.transferFrom(msg.sender, this, votePower));\n      \n        totalVoted = totalVoted.add(100);\n  \n        bool result;\n        if (isPrimary) {\n            result = setPrimaryCertifier();\n        } else {\n            result = confirmCertifier();\n        }\n        return result;\n    }\n\n    /// @notice confirmCertifier put a new certifier.\n    /// @dev confirmCertifier is internal call.\n    function confirmCertifier() internal returns(bool) {\n\n        if (totalVoted >= totalVotablePowers * 2 / 3) {\n            certifiers[pendingCertifier] = true;\n            certifierLists.push(pendingCertifier);\n            totalVotablePowers = totalVotablePowers.add(100);\n            isVoteRound = false;\n            totalVoted = 0;\n\n            emit AddKYCCertifier(pendingCertifier);\n            return true;\n        }\n        return false;\n    }\n\n\n    /// @notice setPrimaryCertifier set to primaryCertifierto.\n    /// @dev setPrimaryCertifier is internal call.\n    function setPrimaryCertifier() internal returns (bool) {\n\n        if (totalVoted >= (totalVotablePowers * 2 / 3)) {\n\n            primaryCertifier = pendingCertifier;\n      \n            isVoteRound = false;\n            totalVoted = 0;\n\n            SetPrimaryCertifier(primaryCertifier);\n\n            return true;\n        }    \n        return false;\n    }\n\n\n    /// @notice isContract function to determine if an address is a contract\n    /// @param _addr The address being queried\n    function isContract(address _addr) view internal returns (bool) {\n        if (_addr == 0) \n            return false;\n        uint256 size;\n        assembly {\n            size := extcodesize(_addr)\n        }\n        return (size > 0);\n    }\n\n    /// @notice getPrimaryCertifier returns param primaryCertifier.\n    /// @dev getPrimaryCertifier is public call and immutable.\n    function getPrimaryCertifier() public view returns (address) {\n        return primaryCertifier;\n    }\n\n    /// @notice isCertifier returns that whether the certifier or not.\n    /// @dev isCertifier is public call and immutable.\n    function isCertifier(address _certifier) public view returns(bool) {\n        return certifiers[_certifier];\n    }\n\n    /// @notice getCertifiers returns all certifiers.\n    /// @dev getCertifiers is public call and immutable.\n    function getCertifiers() public view returns(address[]) {\n        return certifierLists;\n    }\n}",
  "sourcePath": "/Users/sengayusaku/repo/TrustKYC-contract/contract/contracts/KYCCertifier.sol",
  "compiler": {
    "name": "solc",
    "version": "0.4.24+commit.e67f0147.Emscripten.clang"
  },
  "schemaVersion": "2.0.1",
  "updatedAt": "2018-09-02T06:58:16.368Z"
}