{
  "contractName": "KYCProject",
  "abi": [
    {
      "constant": false,
      "inputs": [
        {
          "name": "_flag",
          "type": "bool"
        }
      ],
      "name": "freeza",
      "outputs": [
        {
          "name": "",
          "type": "bool"
        }
      ],
      "payable": false,
      "stateMutability": "nonpayable",
      "type": "function"
    },
    {
      "inputs": [],
      "payable": false,
      "stateMutability": "nonpayable",
      "type": "constructor"
    },
    {
      "anonymous": false,
      "inputs": [
        {
          "indexed": true,
          "name": "project",
          "type": "bytes32"
        },
        {
          "indexed": true,
          "name": "price",
          "type": "uint256"
        }
      ],
      "name": "SetProject",
      "type": "event"
    },
    {
      "constant": false,
      "inputs": [
        {
          "name": "_project",
          "type": "bytes32"
        },
        {
          "name": "_price",
          "type": "uint256"
        }
      ],
      "name": "setProject",
      "outputs": [
        {
          "name": "",
          "type": "uint256"
        }
      ],
      "payable": false,
      "stateMutability": "nonpayable",
      "type": "function"
    },
    {
      "constant": true,
      "inputs": [
        {
          "name": "_project",
          "type": "bytes32"
        }
      ],
      "name": "getFeePrice",
      "outputs": [
        {
          "name": "",
          "type": "uint256"
        }
      ],
      "payable": false,
      "stateMutability": "view",
      "type": "function"
    }
  ],
  "bytecode": "0x608060405234801561001057600080fd5b50336000806101000a81548173ffffffffffffffffffffffffffffffffffffffff021916908373ffffffffffffffffffffffffffffffffffffffff1602179055506001600060146101000a81548160ff0219169083151502179055506103138061007b6000396000f300608060405260043610610057576000357c0100000000000000000000000000000000000000000000000000000000900463ffffffff1680634bb36a1d1461005c5780635e9ea731146100ab578063b6b8d4bd146100f2575b600080fd5b34801561006857600080fd5b50610095600480360381019080803560001916906020019092919080359060200190929190505050610137565b6040518082815260200191505060405180910390f35b3480156100b757600080fd5b506100d8600480360381019080803515159060200190929190505050610234565b604051808215151515815260200191505060405180910390f35b3480156100fe57600080fd5b5061012160048036038101908080356000191690602001909291905050506102c2565b6040518082815260200191505060405180910390f35b60008060149054906101000a900460ff16151561015357600080fd5b6000809054906101000a900473ffffffffffffffffffffffffffffffffffffffff1673ffffffffffffffffffffffffffffffffffffffff163373ffffffffffffffffffffffffffffffffffffffff161415156101ae57600080fd5b600082101515156101be57600080fd5b81600160008560001916600019168152602001908152602001600020819055508183600019167f940068d867005519afae57dbeb5f9b1c2d29dc87a842d0ff1bbef8e89ec8fb7a60405160405180910390a360016000846000191660001916815260200190815260200160002054905092915050565b60008060009054906101000a900473ffffffffffffffffffffffffffffffffffffffff1673ffffffffffffffffffffffffffffffffffffffff163373ffffffffffffffffffffffffffffffffffffffff1614151561029157600080fd5b81600060146101000a81548160ff021916908315150217905550600060149054906101000a900460ff169050919050565b60006001600083600019166000191681526020019081526020016000205490509190505600a165627a7a723058206550282e72ac6118b97434e87b30630b15f876cee53a2c85a8b546b51c446a5d0029",
  "source": "pragma solidity ^0.4.18;\nimport { SafeMath } from \"./SafeMath.sol\";\nimport { Freezable } from \"./Freezable.sol\";\n\n/// @title KYCProject - KYCProject contract\n/// @author - Yusaku Senga - <senga@dri.network>\n/// license let's see in LICENSE\n\ncontract KYCProject is Freezable {\n  \n    //using safemath\n    using SafeMath for uint256;\n\n    /**\n     * Storage\n     */\n\n    mapping(bytes32 => uint256) projectFees;\n\n    /** \n     * Event\n     */\n\n    event SetProject(bytes32 indexed project, uint256 indexed price);\n\n    /**\n     * @notice Constructor method\n     * @dev Constructor is called when contract deployed.\n     */\n\n    constructor() public {}\n\n    /**\n     * functions\n     */\n\n\n    function setProject(bytes32 _project, uint256 _price) public can() onlyOwner() returns (uint256) {\n        require(_price >= 0);\n        projectFees[_project] = _price;\n        emit SetProject(_project, _price);\n        return projectFees[_project];\n    }\n\n    function getFeePrice(bytes32 _project) public view returns (uint256) {\n        return projectFees[_project];\n    }\n}",
  "sourcePath": "/Users/sengayusaku/repo/TrustKYC-contract/contract/contracts/KYCProject.sol",
  "compiler": {
    "name": "solc",
    "version": "0.4.24+commit.e67f0147.Emscripten.clang"
  },
  "schemaVersion": "2.0.1",
  "updatedAt": "2018-09-02T06:58:16.378Z"
}