{
  "contractName": "KYCRegistry",
  "abi": [
    {
      "constant": false,
      "inputs": [
        {
          "name": "_flag",
          "type": "bool"
        }
      ],
      "name": "freeza",
      "outputs": [
        {
          "name": "",
          "type": "bool"
        }
      ],
      "payable": false,
      "stateMutability": "nonpayable",
      "type": "function"
    },
    {
      "constant": true,
      "inputs": [],
      "name": "primaryCertifier",
      "outputs": [
        {
          "name": "",
          "type": "address"
        }
      ],
      "payable": false,
      "stateMutability": "view",
      "type": "function"
    },
    {
      "inputs": [],
      "payable": false,
      "stateMutability": "nonpayable",
      "type": "constructor"
    },
    {
      "payable": true,
      "stateMutability": "payable",
      "type": "fallback"
    },
    {
      "anonymous": false,
      "inputs": [
        {
          "indexed": true,
          "name": "proposer",
          "type": "address"
        },
        {
          "indexed": true,
          "name": "claimAddress",
          "type": "address"
        },
        {
          "indexed": true,
          "name": "certifier",
          "type": "address"
        }
      ],
      "name": "WhiteListed",
      "type": "event"
    },
    {
      "constant": false,
      "inputs": [
        {
          "name": "_cert",
          "type": "address"
        },
        {
          "name": "_proj",
          "type": "address"
        }
      ],
      "name": "init",
      "outputs": [
        {
          "name": "",
          "type": "bool"
        }
      ],
      "payable": false,
      "stateMutability": "nonpayable",
      "type": "function"
    },
    {
      "constant": false,
      "inputs": [],
      "name": "submitCertificate",
      "outputs": [
        {
          "name": "",
          "type": "bool"
        }
      ],
      "payable": true,
      "stateMutability": "payable",
      "type": "function"
    },
    {
      "constant": false,
      "inputs": [
        {
          "name": "_proposer",
          "type": "address"
        },
        {
          "name": "_project",
          "type": "address"
        },
        {
          "name": "_claimAddress",
          "type": "address"
        }
      ],
      "name": "confirmCertificate",
      "outputs": [
        {
          "name": "",
          "type": "bool"
        }
      ],
      "payable": false,
      "stateMutability": "nonpayable",
      "type": "function"
    },
    {
      "constant": false,
      "inputs": [
        {
          "name": "_certifier",
          "type": "address"
        },
        {
          "name": "_proposer",
          "type": "address"
        }
      ],
      "name": "withdraw",
      "outputs": [
        {
          "name": "",
          "type": "bool"
        }
      ],
      "payable": false,
      "stateMutability": "nonpayable",
      "type": "function"
    },
    {
      "constant": true,
      "inputs": [
        {
          "name": "_proposer",
          "type": "address"
        }
      ],
      "name": "getBalanceOfWei",
      "outputs": [
        {
          "name": "",
          "type": "uint256"
        }
      ],
      "payable": false,
      "stateMutability": "view",
      "type": "function"
    },
    {
      "constant": true,
      "inputs": [
        {
          "name": "_who",
          "type": "address"
        }
      ],
      "name": "certified",
      "outputs": [
        {
          "name": "",
          "type": "bool"
        }
      ],
      "payable": false,
      "stateMutability": "view",
      "type": "function"
    },
    {
      "constant": true,
      "inputs": [
        {
          "name": "_who",
          "type": "address"
        }
      ],
      "name": "getCertifier",
      "outputs": [
        {
          "name": "",
          "type": "address"
        }
      ],
      "payable": false,
      "stateMutability": "view",
      "type": "function"
    },
    {
      "constant": true,
      "inputs": [
        {
          "name": "_certifier",
          "type": "address"
        },
        {
          "name": "_who",
          "type": "address"
        }
      ],
      "name": "certifiedFrom",
      "outputs": [
        {
          "name": "",
          "type": "bool"
        }
      ],
      "payable": false,
      "stateMutability": "view",
      "type": "function"
    }
  ],
  "bytecode": "0x608060405234801561001057600080fd5b50336000806101000a81548173ffffffffffffffffffffffffffffffffffffffff021916908373ffffffffffffffffffffffffffffffffffffffff1602179055506001600060146101000a81548160ff0219169083151502179055506000600560146101000a81548160ff0219169083600181111561008b57fe5b02179055506114168061009f6000396000f3006080604052600436106100a4576000357c0100000000000000000000000000000000000000000000000000000000900463ffffffff16806309fc93c1146100af5780630d734ae5146101065780631d706777146101a15780635e9ea731146102245780639dafc6cc1461026b578063cc1d4c02146102c2578063eaa3b38c1461031d578063f09a40161461033f578063f940e385146103ba578063fd0eb41314610435575b6100ac6104b0565b50005b3480156100bb57600080fd5b506100f0600480360381019080803573ffffffffffffffffffffffffffffffffffffffff169060200190929190505050610626565b6040518082815260200191505060405180910390f35b34801561011257600080fd5b50610187600480360381019080803573ffffffffffffffffffffffffffffffffffffffff169060200190929190803573ffffffffffffffffffffffffffffffffffffffff169060200190929190803573ffffffffffffffffffffffffffffffffffffffff1690602001909291905050506106ce565b604051808215151515815260200191505060405180910390f35b3480156101ad57600080fd5b506101e2600480360381019080803573ffffffffffffffffffffffffffffffffffffffff169060200190929190505050610c30565b604051808273ffffffffffffffffffffffffffffffffffffffff1673ffffffffffffffffffffffffffffffffffffffff16815260200191505060405180910390f35b34801561023057600080fd5b50610251600480360381019080803515159060200190929190505050610d17565b604051808215151515815260200191505060405180910390f35b34801561027757600080fd5b50610280610da5565b604051808273ffffffffffffffffffffffffffffffffffffffff1673ffffffffffffffffffffffffffffffffffffffff16815260200191505060405180910390f35b3480156102ce57600080fd5b50610303600480360381019080803573ffffffffffffffffffffffffffffffffffffffff169060200190929190505050610dcb565b604051808215151515815260200191505060405180910390f35b6103256104b0565b604051808215151515815260200191505060405180910390f35b34801561034b57600080fd5b506103a0600480360381019080803573ffffffffffffffffffffffffffffffffffffffff169060200190929190803573ffffffffffffffffffffffffffffffffffffffff169060200190929190505050610e80565b604051808215151515815260200191505060405180910390f35b3480156103c657600080fd5b5061041b600480360381019080803573ffffffffffffffffffffffffffffffffffffffff169060200190929190803573ffffffffffffffffffffffffffffffffffffffff1690602001909291905050506110dc565b604051808215151515815260200191505060405180910390f35b34801561044157600080fd5b50610496600480360381019080803573ffffffffffffffffffffffffffffffffffffffff169060200190929190803573ffffffffffffffffffffffffffffffffffffffff169060200190929190505050611327565b604051808215151515815260200191505060405180910390f35b60008060149054906101000a900460ff1615156104cc57600080fd5b61057d3460016000600560009054906101000a900473ffffffffffffffffffffffffffffffffffffffff1673ffffffffffffffffffffffffffffffffffffffff1673ffffffffffffffffffffffffffffffffffffffff16815260200190815260200160002060003373ffffffffffffffffffffffffffffffffffffffff1673ffffffffffffffffffffffffffffffffffffffff168152602001908152602001600020546113cc90919063ffffffff16565b60016000600560009054906101000a900473ffffffffffffffffffffffffffffffffffffffff1673ffffffffffffffffffffffffffffffffffffffff1673ffffffffffffffffffffffffffffffffffffffff16815260200190815260200160002060003373ffffffffffffffffffffffffffffffffffffffff1673ffffffffffffffffffffffffffffffffffffffff168152602001908152602001600020819055506001905090565b600060016000600560009054906101000a900473ffffffffffffffffffffffffffffffffffffffff1673ffffffffffffffffffffffffffffffffffffffff1673ffffffffffffffffffffffffffffffffffffffff16815260200190815260200160002060008373ffffffffffffffffffffffffffffffffffffffff1673ffffffffffffffffffffffffffffffffffffffff168152602001908152602001600020549050919050565b60008060008060149054906101000a900460ff1615156106ed57600080fd5b3373ffffffffffffffffffffffffffffffffffffffff16600560009054906101000a900473ffffffffffffffffffffffffffffffffffffffff1673ffffffffffffffffffffffffffffffffffffffff1614151561074957600080fd5b600460009054906101000a900473ffffffffffffffffffffffffffffffffffffffff1673ffffffffffffffffffffffffffffffffffffffff16632bfa37d1866040518263ffffffff167c0100000000000000000000000000000000000000000000000000000000028152600401808273ffffffffffffffffffffffffffffffffffffffff1673ffffffffffffffffffffffffffffffffffffffff168152602001915050602060405180830381600087803b15801561080657600080fd5b505af115801561081a573d6000803e3d6000fd5b505050506040513d602081101561083057600080fd5b810190808051906020019092919050505091508160016000600560009054906101000a900473ffffffffffffffffffffffffffffffffffffffff1673ffffffffffffffffffffffffffffffffffffffff1673ffffffffffffffffffffffffffffffffffffffff16815260200190815260200160002060008873ffffffffffffffffffffffffffffffffffffffff1673ffffffffffffffffffffffffffffffffffffffff16815260200190815260200160002054101515156108f057600080fd5b600560009054906101000a900473ffffffffffffffffffffffffffffffffffffffff1673ffffffffffffffffffffffffffffffffffffffff166108fc839081150290604051600060405180830381858888f19350505050151561095257600080fd5b8160016000600560009054906101000a900473ffffffffffffffffffffffffffffffffffffffff1673ffffffffffffffffffffffffffffffffffffffff1673ffffffffffffffffffffffffffffffffffffffff16815260200190815260200160002060008873ffffffffffffffffffffffffffffffffffffffff1673ffffffffffffffffffffffffffffffffffffffff168152602001908152602001600020540390508573ffffffffffffffffffffffffffffffffffffffff166108fc829081150290604051600060405180830381858888f193505050501515610a3557600080fd5b600160026000600560009054906101000a900473ffffffffffffffffffffffffffffffffffffffff1673ffffffffffffffffffffffffffffffffffffffff1673ffffffffffffffffffffffffffffffffffffffff16815260200190815260200160002060008673ffffffffffffffffffffffffffffffffffffffff1673ffffffffffffffffffffffffffffffffffffffff16815260200190815260200160002060006101000a81548160ff021916908315150217905550600060016000600560009054906101000a900473ffffffffffffffffffffffffffffffffffffffff1673ffffffffffffffffffffffffffffffffffffffff1673ffffffffffffffffffffffffffffffffffffffff16815260200190815260200160002060008873ffffffffffffffffffffffffffffffffffffffff1673ffffffffffffffffffffffffffffffffffffffff16815260200190815260200160002081905550600560009054906101000a900473ffffffffffffffffffffffffffffffffffffffff1673ffffffffffffffffffffffffffffffffffffffff168473ffffffffffffffffffffffffffffffffffffffff168773ffffffffffffffffffffffffffffffffffffffff167f1f39f253506bf384ce653a878c22225914e6a145c0e77c978fbe8d578024a64e60405160405180910390a46001925050509392505050565b600060026000600560009054906101000a900473ffffffffffffffffffffffffffffffffffffffff1673ffffffffffffffffffffffffffffffffffffffff1673ffffffffffffffffffffffffffffffffffffffff16815260200190815260200160002060008373ffffffffffffffffffffffffffffffffffffffff1673ffffffffffffffffffffffffffffffffffffffff16815260200190815260200160002060009054906101000a900460ff1615610d0d57600560009054906101000a900473ffffffffffffffffffffffffffffffffffffffff169050610d12565b600090505b919050565b60008060009054906101000a900473ffffffffffffffffffffffffffffffffffffffff1673ffffffffffffffffffffffffffffffffffffffff163373ffffffffffffffffffffffffffffffffffffffff16141515610d7457600080fd5b81600060146101000a81548160ff021916908315150217905550600060149054906101000a900460ff169050919050565b600560009054906101000a900473ffffffffffffffffffffffffffffffffffffffff1681565b600060026000600560009054906101000a900473ffffffffffffffffffffffffffffffffffffffff1673ffffffffffffffffffffffffffffffffffffffff1673ffffffffffffffffffffffffffffffffffffffff16815260200190815260200160002060008373ffffffffffffffffffffffffffffffffffffffff1673ffffffffffffffffffffffffffffffffffffffff16815260200190815260200160002060009054906101000a900460ff169050919050565b60008060149054906101000a900460ff161515610e9c57600080fd5b6000809054906101000a900473ffffffffffffffffffffffffffffffffffffffff1673ffffffffffffffffffffffffffffffffffffffff163373ffffffffffffffffffffffffffffffffffffffff16141515610ef757600080fd5b60006001811115610f0457fe5b600560149054906101000a900460ff166001811115610f1f57fe5b141515610f2b57600080fd5b82600360006101000a81548173ffffffffffffffffffffffffffffffffffffffff021916908373ffffffffffffffffffffffffffffffffffffffff16021790555081600460006101000a81548173ffffffffffffffffffffffffffffffffffffffff021916908373ffffffffffffffffffffffffffffffffffffffff160217905550600360009054906101000a900473ffffffffffffffffffffffffffffffffffffffff1673ffffffffffffffffffffffffffffffffffffffff16632d97e0416040518163ffffffff167c0100000000000000000000000000000000000000000000000000000000028152600401602060405180830381600087803b15801561103357600080fd5b505af1158015611047573d6000803e3d6000fd5b505050506040513d602081101561105d57600080fd5b8101908080519060200190929190505050600560006101000a81548173ffffffffffffffffffffffffffffffffffffffff021916908373ffffffffffffffffffffffffffffffffffffffff1602179055506001600560146101000a81548160ff021916908360018111156110cd57fe5b02179055506001905092915050565b60008060149054906101000a900460ff1615156110f857600080fd5b6000809054906101000a900473ffffffffffffffffffffffffffffffffffffffff1673ffffffffffffffffffffffffffffffffffffffff163373ffffffffffffffffffffffffffffffffffffffff1614151561115357600080fd5b6000600160008573ffffffffffffffffffffffffffffffffffffffff1673ffffffffffffffffffffffffffffffffffffffff16815260200190815260200160002060008473ffffffffffffffffffffffffffffffffffffffff1673ffffffffffffffffffffffffffffffffffffffff16815260200190815260200160002054101515156111df57600080fd5b8173ffffffffffffffffffffffffffffffffffffffff166108fc600160008673ffffffffffffffffffffffffffffffffffffffff1673ffffffffffffffffffffffffffffffffffffffff16815260200190815260200160002060008573ffffffffffffffffffffffffffffffffffffffff1673ffffffffffffffffffffffffffffffffffffffff168152602001908152602001600020549081150290604051600060405180830381858888f19350505050151561129b57600080fd5b6000600160008573ffffffffffffffffffffffffffffffffffffffff1673ffffffffffffffffffffffffffffffffffffffff16815260200190815260200160002060008473ffffffffffffffffffffffffffffffffffffffff1673ffffffffffffffffffffffffffffffffffffffff168152602001908152602001600020819055506001905092915050565b6000600260008473ffffffffffffffffffffffffffffffffffffffff1673ffffffffffffffffffffffffffffffffffffffff16815260200190815260200160002060008373ffffffffffffffffffffffffffffffffffffffff1673ffffffffffffffffffffffffffffffffffffffff16815260200190815260200160002060009054906101000a900460ff16156113c157600190506113c6565b600090505b92915050565b60008082840190508381101515156113e057fe5b80915050929150505600a165627a7a72305820db0524d15024490edfd061584e5f660eafb121d34d12d69198b67eac6a2614400029",
  "source": "pragma solidity ^0.4.18;\n\nimport { AbsKYCCertifier } from \"./AbsKYCCertifier.sol\";\nimport { AbsKYCProject } from \"./AbsKYCProject.sol\";\nimport { SafeMath } from \"./SafeMath.sol\";\nimport { MultiCertifier } from \"./MultiCertifier.sol\";\nimport { Freezable } from \"./Freezable.sol\";\n\n/// @title KYCRegistry - KYCRegistry contract\n/// @author - Yusaku Senga - <senga@dri.network>\n/// license let's see in LICENSE\n\ncontract KYCRegistry is MultiCertifier,Freezable {\n    //using safemath\n    using SafeMath for uint256;\n\n    /**\n        * Storage\n        */\n\n    mapping(address => mapping(address => uint)) balanceWei;\n    mapping(address => mapping(address => bool)) whitelists;\n    AbsKYCCertifier certifier;\n    AbsKYCProject project;\n    address public primaryCertifier;\n\n    enum Status {\n        Deployed,\n        Initialized\n    }\n    Status status;\n\n    /**\n        * Modifier\n        */\n\n    modifier onlyPrimaryCertifier() {\n        require(primaryCertifier == msg.sender);\n        _;\n    }\n\n    /** \n        * Event\n        */\n\n    event WhiteListed(address indexed proposer, address indexed claimAddress, address indexed certifier);\n\n    /**\n        * @notice Constructor method\n        * @dev Constructor is called when contract deployed.\n        */\n\n    constructor() public {\n        status = Status.Deployed;\n    }\n\n    /**\n        * functions\n        */\n\n\n    /// @notice setConfig execute to initializing registry.\n    /// @dev setConfig is called by Owner.\n    /// @param  _cert    to set up AbsKYCCertifier contract.\n    function init(address _cert, address _proj) public can() onlyOwner()  returns (bool) {\n\n        require(status == Status.Deployed);\n\n        certifier = AbsKYCCertifier(_cert);\n\n        project = AbsKYCProject(_proj);\n\n        primaryCertifier = certifier.getPrimaryCertifier();\n\n        status = Status.Initialized;\n\n        return true;\n    }\n\n    /// @notice submitCertificate puts a new application.\n    /// @dev submitCertificate is called by proposer.\n    function submitCertificate() public payable can() returns(bool) {\n\n        balanceWei[primaryCertifier][msg.sender] = balanceWei[primaryCertifier][msg.sender].add(msg.value);\n\n        return true;\n    }\n\n    /// @notice confirmCertificate executes a settlement to puts application.\n    /// @dev setConfig is called by PrimaryCertifier.\n    /// @param  _proposer    This applications proposer.\n    /// @param  _project      This applications project.\n    /// @param  _claimAddress  This applications claim Ethereum address.\n    function confirmCertificate(address _proposer, address _project, address _claimAddress) public can() onlyPrimaryCertifier() returns(bool) {\n        \n        uint256 fee = project.getFeePrice(_project);\n        \n        require(balanceWei[primaryCertifier][_proposer] >= fee);\n\n        require(primaryCertifier.send(fee));\n\n        uint256 refund = balanceWei[primaryCertifier][_proposer] - fee;\n\n        require(_proposer.send(refund));\n\n        whitelists[primaryCertifier][_claimAddress] = true;\n\n        balanceWei[primaryCertifier][_proposer] = 0;\n\n        emit WhiteListed(_proposer, _claimAddress, primaryCertifier);\n        return true;\n    }\n\n    function withdraw(address _certifier, address _proposer) public can() onlyOwner() returns (bool) {\n\n        require(balanceWei[_certifier][_proposer] >= 0);\n\n        require(_proposer.send(balanceWei[_certifier][_proposer]));\n\n        balanceWei[_certifier][_proposer] = 0;\n\n        return true;\n    }\n\n    /// @notice getBalanceOfWei get deposited ether balance of _proposer.\n    /// @dev getBalanceOfWei is called by anyone.\n    function getBalanceOfWei(address _proposer) public view returns(uint256) {\n        return balanceWei[primaryCertifier][_proposer];\n    }\n\n    /**\n        * allow multiple party integration functions\n        */\n\n    /// @notice certified return bool whether who is certified.\n    /// @dev certified is called by anyone.\n    function certified(address _who) public view returns (bool) {\n        return whitelists[primaryCertifier][_who];\n    }\n\n    /// @notice getCertifier return primary certifier if who has been certified.\n    /// @dev getCertifier is called by anyone.\n    function getCertifier(address _who) public view returns (address) {\n        if (whitelists[primaryCertifier][_who]) {\n            return primaryCertifier;\n        }\n        return 0x0;\n    }\n\n    /// @notice certifiedFrom return bool whether who is certiied with certifier.\n    /// @dev certifiedFrom is called by anyone.\n    function certifiedFrom(address _certifier, address _who) public view returns (bool) {\n        if (whitelists[_certifier][_who]) {\n            return true;\n        }\n        return false;\n    } \n\n    /**\n     * Fallback function. Should be bypass to submitCertificate function.\n     */\n\n    function () public payable {\n        submitCertificate();\n    }\n}",
  "sourcePath": "/Users/sengayusaku/repo/TrustKYC-contract/contract/contracts/KYCRegistry.sol",
  "compiler": {
    "name": "solc",
    "version": "0.4.24+commit.e67f0147.Emscripten.clang"
  },
  "schemaVersion": "2.0.1",
  "updatedAt": "2018-09-02T06:58:16.375Z"
}